{
  "_format": "hh-sol-artifact-1",
  "contractName": "EventContract",
  "sourceName": "contracts/EventContract.sol",
  "abi": [
    {
      "inputs": [
        {
          "internalType": "uint256",
          "name": "id",
          "type": "uint256"
        },
        {
          "internalType": "uint256",
          "name": "quantity",
          "type": "uint256"
        }
      ],
      "name": "buyTicket",
      "outputs": [],
      "stateMutability": "payable",
      "type": "function"
    },
    {
      "inputs": [
        {
          "internalType": "string",
          "name": "name",
          "type": "string"
        },
        {
          "internalType": "uint256",
          "name": "date",
          "type": "uint256"
        },
        {
          "internalType": "uint256",
          "name": "price",
          "type": "uint256"
        },
        {
          "internalType": "uint256",
          "name": "ticketCount",
          "type": "uint256"
        }
      ],
      "name": "createEvent",
      "outputs": [],
      "stateMutability": "nonpayable",
      "type": "function"
    },
    {
      "inputs": [
        {
          "internalType": "uint256",
          "name": "",
          "type": "uint256"
        }
      ],
      "name": "events",
      "outputs": [
        {
          "internalType": "address",
          "name": "organizer",
          "type": "address"
        },
        {
          "internalType": "string",
          "name": "name",
          "type": "string"
        },
        {
          "internalType": "uint256",
          "name": "date",
          "type": "uint256"
        },
        {
          "internalType": "uint256",
          "name": "price",
          "type": "uint256"
        },
        {
          "internalType": "uint256",
          "name": "ticketCount",
          "type": "uint256"
        },
        {
          "internalType": "uint256",
          "name": "ticketRemain",
          "type": "uint256"
        }
      ],
      "stateMutability": "view",
      "type": "function"
    },
    {
      "inputs": [
        {
          "internalType": "uint256",
          "name": "id",
          "type": "uint256"
        }
      ],
      "name": "getEventDetails",
      "outputs": [
        {
          "components": [
            {
              "internalType": "address",
              "name": "organizer",
              "type": "address"
            },
            {
              "internalType": "string",
              "name": "name",
              "type": "string"
            },
            {
              "internalType": "uint256",
              "name": "date",
              "type": "uint256"
            },
            {
              "internalType": "uint256",
              "name": "price",
              "type": "uint256"
            },
            {
              "internalType": "uint256",
              "name": "ticketCount",
              "type": "uint256"
            },
            {
              "internalType": "uint256",
              "name": "ticketRemain",
              "type": "uint256"
            }
          ],
          "internalType": "struct EventContract.Event",
          "name": "",
          "type": "tuple"
        }
      ],
      "stateMutability": "view",
      "type": "function"
    },
    {
      "inputs": [],
      "name": "nextId",
      "outputs": [
        {
          "internalType": "uint256",
          "name": "",
          "type": "uint256"
        }
      ],
      "stateMutability": "view",
      "type": "function"
    },
    {
      "inputs": [
        {
          "internalType": "address",
          "name": "whose",
          "type": "address"
        },
        {
          "internalType": "uint256",
          "name": "id",
          "type": "uint256"
        }
      ],
      "name": "showMyTickets",
      "outputs": [
        {
          "internalType": "uint256",
          "name": "tick",
          "type": "uint256"
        }
      ],
      "stateMutability": "view",
      "type": "function"
    },
    {
      "inputs": [
        {
          "internalType": "address",
          "name": "",
          "type": "address"
        },
        {
          "internalType": "uint256",
          "name": "",
          "type": "uint256"
        }
      ],
      "name": "tickets",
      "outputs": [
        {
          "internalType": "uint256",
          "name": "",
          "type": "uint256"
        }
      ],
      "stateMutability": "view",
      "type": "function"
    },
    {
      "inputs": [
        {
          "internalType": "uint256",
          "name": "id",
          "type": "uint256"
        },
        {
          "internalType": "uint256",
          "name": "quantity",
          "type": "uint256"
        },
        {
          "internalType": "address",
          "name": "to",
          "type": "address"
        }
      ],
      "name": "transferTicket",
      "outputs": [],
      "stateMutability": "nonpayable",
      "type": "function"
    }
  ],
  "bytecode": "0x608060405234801561001057600080fd5b506115e5806100206000396000f3fe60806040526004361061007b5760003560e01c8063a06c255e1161004e578063a06c255e14610132578063dae7a13c1461016f578063ec38d5a0146101ac578063f086a09b146101e95761007b565b80630374ab0b146100805780630b791430146100a9578063298ec208146100eb57806361b8ce8c14610107575b600080fd5b34801561008c57600080fd5b506100a760048036038101906100a29190610cbb565b610212565b005b3480156100b557600080fd5b506100d060048036038101906100cb9190610d3e565b61039b565b6040516100e296959493929190610e43565b60405180910390f35b61010560048036038101906101009190610eab565b61047f565b005b34801561011357600080fd5b5061011c610664565b6040516101299190610eeb565b60405180910390f35b34801561013e57600080fd5b5061015960048036038101906101549190610f32565b61066a565b6040516101669190610eeb565b60405180910390f35b34801561017b57600080fd5b5061019660048036038101906101919190610f32565b6106c5565b6040516101a39190610eeb565b60405180910390f35b3480156101b857600080fd5b506101d360048036038101906101ce9190610d3e565b6106ea565b6040516101e09190611063565b60405180910390f35b3480156101f557600080fd5b50610210600480360381019061020b9190611085565b610826565b005b428311610254576040517f08c379a000000000000000000000000000000000000000000000000000000000815260040161024b90611124565b60405180910390fd5b60008111610297576040517f08c379a000000000000000000000000000000000000000000000000000000000815260040161028e906111b6565b60405180910390fd5b6040518060c001604052803373ffffffffffffffffffffffffffffffffffffffff16815260200185815260200184815260200183815260200182815260200182815250600080600254815260200190815260200160002060008201518160000160006101000a81548173ffffffffffffffffffffffffffffffffffffffff021916908373ffffffffffffffffffffffffffffffffffffffff1602179055506020820151816001019080519060200190610351929190610a3c565b5060408201518160020155606082015181600301556080820151816004015560a082015181600501559050506002600081548092919061039090611205565b919050555050505050565b60006020528060005260406000206000915090508060000160009054906101000a900473ffffffffffffffffffffffffffffffffffffffff16908060010180546103e49061127d565b80601f01602080910402602001604051908101604052809291908181526020018280546104109061127d565b801561045d5780601f106104325761010080835404028352916020019161045d565b820191906000526020600020905b81548152906001019060200180831161044057829003601f168201915b5050505050908060020154908060030154908060040154908060050154905086565b60008060008481526020019081526020016000206002015414156104d8576040517f08c379a00000000000000000000000000000000000000000000000000000000081526004016104cf906112fb565b60405180910390fd5b60008083815260200190815260200160002060020154421061052f576040517f08c379a000000000000000000000000000000000000000000000000000000000815260040161052690611367565b60405180910390fd5b600080600084815260200190815260200160002090508181600301546105559190611387565b3414610596576040517f08c379a000000000000000000000000000000000000000000000000000000000815260040161058d9061142d565b60405180910390fd5b81816005015410156105dd576040517f08c379a00000000000000000000000000000000000000000000000000000000081526004016105d490611499565b60405180910390fd5b818160050160008282546105f191906114b9565b9250508190555081600160003373ffffffffffffffffffffffffffffffffffffffff1673ffffffffffffffffffffffffffffffffffffffff1681526020019081526020016000206000858152602001908152602001600020600082825461065891906114ed565b92505081905550505050565b60025481565b6000600160008473ffffffffffffffffffffffffffffffffffffffff1673ffffffffffffffffffffffffffffffffffffffff168152602001908152602001600020600083815260200190815260200160002054905092915050565b6001602052816000526040600020602052806000526040600020600091509150505481565b6106f2610ac2565b6000808381526020019081526020016000206040518060c00160405290816000820160009054906101000a900473ffffffffffffffffffffffffffffffffffffffff1673ffffffffffffffffffffffffffffffffffffffff1673ffffffffffffffffffffffffffffffffffffffff1681526020016001820180546107759061127d565b80601f01602080910402602001604051908101604052809291908181526020018280546107a19061127d565b80156107ee5780601f106107c3576101008083540402835291602001916107ee565b820191906000526020600020905b8154815290600101906020018083116107d157829003601f168201915b505050505081526020016002820154815260200160038201548152602001600482015481526020016005820154815250509050919050565b600080600085815260200190815260200160002060020154141561087f576040517f08c379a0000000000000000000000000000000000000000000000000000000008152600401610876906112fb565b60405180910390fd5b6000808481526020019081526020016000206002015442106108d6576040517f08c379a00000000000000000000000000000000000000000000000000000000081526004016108cd90611367565b60405180910390fd5b81600160003373ffffffffffffffffffffffffffffffffffffffff1673ffffffffffffffffffffffffffffffffffffffff1681526020019081526020016000206000858152602001908152602001600020541015610969576040517f08c379a00000000000000000000000000000000000000000000000000000000081526004016109609061158f565b60405180910390fd5b81600160003373ffffffffffffffffffffffffffffffffffffffff1673ffffffffffffffffffffffffffffffffffffffff168152602001908152602001600020600085815260200190815260200160002060008282546109c991906114b9565b9250508190555081600160008373ffffffffffffffffffffffffffffffffffffffff1673ffffffffffffffffffffffffffffffffffffffff16815260200190815260200160002060008581526020019081526020016000206000828254610a3091906114ed565b92505081905550505050565b828054610a489061127d565b90600052602060002090601f016020900481019282610a6a5760008555610ab1565b82601f10610a8357805160ff1916838001178555610ab1565b82800160010185558215610ab1579182015b82811115610ab0578251825591602001919060010190610a95565b5b509050610abe9190610b0e565b5090565b6040518060c00160405280600073ffffffffffffffffffffffffffffffffffffffff16815260200160608152602001600081526020016000815260200160008152602001600081525090565b5b80821115610b27576000816000905550600101610b0f565b5090565b6000604051905090565b600080fd5b600080fd5b600080fd5b600080fd5b6000601f19601f8301169050919050565b7f4e487b7100000000000000000000000000000000000000000000000000000000600052604160045260246000fd5b610b9282610b49565b810181811067ffffffffffffffff82111715610bb157610bb0610b5a565b5b80604052505050565b6000610bc4610b2b565b9050610bd08282610b89565b919050565b600067ffffffffffffffff821115610bf057610bef610b5a565b5b610bf982610b49565b9050602081019050919050565b82818337600083830152505050565b6000610c28610c2384610bd5565b610bba565b905082815260208101848484011115610c4457610c43610b44565b5b610c4f848285610c06565b509392505050565b600082601f830112610c6c57610c6b610b3f565b5b8135610c7c848260208601610c15565b91505092915050565b6000819050919050565b610c9881610c85565b8114610ca357600080fd5b50565b600081359050610cb581610c8f565b92915050565b60008060008060808587031215610cd557610cd4610b35565b5b600085013567ffffffffffffffff811115610cf357610cf2610b3a565b5b610cff87828801610c57565b9450506020610d1087828801610ca6565b9350506040610d2187828801610ca6565b9250506060610d3287828801610ca6565b91505092959194509250565b600060208284031215610d5457610d53610b35565b5b6000610d6284828501610ca6565b91505092915050565b600073ffffffffffffffffffffffffffffffffffffffff82169050919050565b6000610d9682610d6b565b9050919050565b610da681610d8b565b82525050565b600081519050919050565b600082825260208201905092915050565b60005b83811015610de6578082015181840152602081019050610dcb565b83811115610df5576000848401525b50505050565b6000610e0682610dac565b610e108185610db7565b9350610e20818560208601610dc8565b610e2981610b49565b840191505092915050565b610e3d81610c85565b82525050565b600060c082019050610e586000830189610d9d565b8181036020830152610e6a8188610dfb565b9050610e796040830187610e34565b610e866060830186610e34565b610e936080830185610e34565b610ea060a0830184610e34565b979650505050505050565b60008060408385031215610ec257610ec1610b35565b5b6000610ed085828601610ca6565b9250506020610ee185828601610ca6565b9150509250929050565b6000602082019050610f006000830184610e34565b92915050565b610f0f81610d8b565b8114610f1a57600080fd5b50565b600081359050610f2c81610f06565b92915050565b60008060408385031215610f4957610f48610b35565b5b6000610f5785828601610f1d565b9250506020610f6885828601610ca6565b9150509250929050565b610f7b81610d8b565b82525050565b600082825260208201905092915050565b6000610f9d82610dac565b610fa78185610f81565b9350610fb7818560208601610dc8565b610fc081610b49565b840191505092915050565b610fd481610c85565b82525050565b600060c083016000830151610ff26000860182610f72565b506020830151848203602086015261100a8282610f92565b915050604083015161101f6040860182610fcb565b5060608301516110326060860182610fcb565b5060808301516110456080860182610fcb565b5060a083015161105860a0860182610fcb565b508091505092915050565b6000602082019050818103600083015261107d8184610fda565b905092915050565b60008060006060848603121561109e5761109d610b35565b5b60006110ac86828701610ca6565b93505060206110bd86828701610ca6565b92505060406110ce86828701610f1d565b9150509250925092565b7f596f752063616e206f7267616e697a6520666f72206675747572652064617465600082015250565b600061110e602083610db7565b9150611119826110d8565b602082019050919050565b6000602082019050818103600083015261113d81611101565b9050919050565b7f596f752063616e206f7267616e697a65206576656e74206f6e6c79206966207960008201527f6f7520637265617465206d6f7265207468616e2030207469636b657473000000602082015250565b60006111a0603d83610db7565b91506111ab82611144565b604082019050919050565b600060208201905081810360008301526111cf81611193565b9050919050565b7f4e487b7100000000000000000000000000000000000000000000000000000000600052601160045260246000fd5b600061121082610c85565b91507fffffffffffffffffffffffffffffffffffffffffffffffffffffffffffffffff821415611243576112426111d6565b5b600182019050919050565b7f4e487b7100000000000000000000000000000000000000000000000000000000600052602260045260246000fd5b6000600282049050600182168061129557607f821691505b602082108114156112a9576112a861124e565b5b50919050565b7f54686973206576656e7420646f6573206e6f7420657869737400000000000000600082015250565b60006112e5601983610db7565b91506112f0826112af565b602082019050919050565b60006020820190508181036000830152611314816112d8565b9050919050565b7f4576656e742068617320616c7265616479206f63637572656400000000000000600082015250565b6000611351601983610db7565b915061135c8261131b565b602082019050919050565b6000602082019050818103600083015261138081611344565b9050919050565b600061139282610c85565b915061139d83610c85565b9250817fffffffffffffffffffffffffffffffffffffffffffffffffffffffffffffffff04831182151516156113d6576113d56111d6565b5b828202905092915050565b7f4574686572206973206e6f7420656e6f75676800000000000000000000000000600082015250565b6000611417601383610db7565b9150611422826113e1565b602082019050919050565b600060208201905081810360008301526114468161140a565b9050919050565b7f4e6f7420656e6f756768207469636b6574730000000000000000000000000000600082015250565b6000611483601283610db7565b915061148e8261144d565b602082019050919050565b600060208201905081810360008301526114b281611476565b9050919050565b60006114c482610c85565b91506114cf83610c85565b9250828210156114e2576114e16111d6565b5b828203905092915050565b60006114f882610c85565b915061150383610c85565b9250827fffffffffffffffffffffffffffffffffffffffffffffffffffffffffffffffff03821115611538576115376111d6565b5b828201905092915050565b7f596f7520646f6e6f74206861766520656e6f756768207469636b657473000000600082015250565b6000611579601d83610db7565b915061158482611543565b602082019050919050565b600060208201905081810360008301526115a88161156c565b905091905056fea26469706673582212206ca9c1f450df2a631ac40d0c8b489344d78681321d3a6400b76ad3679d86779664736f6c63430008090033",
  "linkReferences": {},
  "deployedLinkReferences": {}
}